:020000041000EA
:1000000000B5324B212058609868022188439860DF
:10001000D860186158612E4B002199600221596106
:100020000121F02299502B49196001219960352056
:1000300000F044F80222904214D00621196600F024
:1000400034F8196E01211966002018661A6600F04E
:100050002CF8196E196E196E052000F02FF8012189
:100060000842F9D1002199601B49196000215960AB
:100070001A491B48016001219960EB211966A021F2
:10008000196600F012F800219960164914480160C1
:100090000121996001BC002800D000471248134993
:1000A000086003C880F30888084703B5996A0420EC
:1000B0000142FBD001200142F8D103BD02B5186610
:1000C0001866FFF7F2FF186E186E02BD00000240BE
:1000D000000000180000070000035F00212200005C
:1000E000F4000018222000A00001001008ED00E03C
:1000F00000000000000000000000000074B24E7A12
:1001000000200420F7010010C3010010C5010010F9
:10011000C1010010C1010010C1010010C101001097
:10012000C1010010C1010010C1010010C701001081
:10013000C1010010C1010010C9010010CB01001065
:10014000CD010010CD010010CD010010CD01001037
:10015000CD010010CD010010CD010010CD01001027
:10016000CD010010CD010010CD010010CD01001017
:10017000CD010010CD010010CD010010CD01001007
:10018000CD010010CD010010CD010010CD010010F7
:10019000CD010010CD010010CD010010CD010010E7
:1001A000CD010010CD010010CD010010CD010010D7
:1001B000CD010010CD010010CD010010CD010010C7
:1001C00000BE00BE00BE00BE00BE00BEEFF3058054
:1001D000103800BEF2EB8871C88C0010F48C00104F
:1001E0003802001090A31AE71E481F49086006C88D
:1001F00081F3088810471D480068002801D019487D
:10020000F3E70DA40ECC002902D000F012F8F9E7B4
:100210001749184A002000E001C19142FCD116495B
:100220008847164988471649884700BEFDE701C937
:1002300001C29A42FBD37047F48C0010C00000202A
:10024000381100206C9D00100000042000000420E4
:100250006C9D00100010042000100420000000001D
:10026000704700000000000008ED00E0000000D032
:100270003811002060230020855300102103001056
:100280007D530010F8B5C0460448054B10B58342B5
:1002900003D0044B002B00D0984710BD381100202C
:1002A000381100200000000006480749091A8B1089
:1002B000C90FC91810B5491003D0044B002B00D04A
:1002C000984710BD381100203811002000000000B0
:1002D00010B5074C2378002B09D1FFF7D5FF054B4C
:1002E000002B02D0044800E000BF0123237010BDA2
:1002F000C013002000000000C8840010054B10B59A
:10030000002B03D00449054800E000BFFFF7CCFFF5
:1003100010BDC04600000000C4130020C8840010B7
:10032000F0B5DE4657464E464546E0B5A1B005F06D
:100330005BF96B4B6B491A686B4812929B880CAA4D
:10034000938314230293033B0193013B12220093F6
:10035000033300F083FB654805F09AF90CAB9C462B
:100360001727634B14AC0C93624B67440593624BA5
:100370000893624B9B46624B0993624B0A9319ABFD
:100380009A46614B9946614B0D93614B0693614BC5
:100390000793614B0E93614B0F93614B0B9320AB13
:1003A000984606E0059805F073F9FA20800002F0FF
:1003B000E7FB10220021200003F024FC1022002182
:1003C00018A803F01FFC002110221CA803F01AFC3F
:1003D0000023210052203B7000F022FE0028E4D1CF
:1003E0002378042B02D06378002B46D1390018A85B
:1003F00000F046FC0028D5D1089A0A21584605F09D
:10040000CFF9099D2178280005F0CAF96178280004
:1004100005F0C6F90A2005F0EFF80A2158460A9AB5
:1004200005F0BEF94E4618AD29783000013505F0CB
:10043000B7F95545F8D10A2005F0DEF8200018A9D3
:1004400000F0A2FFB146031E1BD134220CAB9B1857
:100450000A211B78079A069805F0A2F9002160206E
:1004600018AB12AA01F00EFA002810D00B9805F074
:100470000FF90A2005F0C0F897E70C9805F008F985
:1004800093E70A210D9A069805F08AF9DDE71CA981
:10049000013001F0C3FB0E9805F082F94B461CAD0C
:1004A0002E00A9461D0031782800013605F078F9A4
:1004B0004645F8D12B000A204D46994605F09CF898
:1004C0000F9805F06DF92878013505F095F8454548
:1004D000F9D10A2005F090F801F064FBC9E7C046A5
:1004E0008485001000C0034040420F00C884001003
:1004F000DC840010F884001018850010208500109E
:100500002885001030850010348500103C850010CF
:10051000408500104C85001058850010648500103F
:1005200074850010F0B5DE4657464E464546E0B5A8
:10053000012702233A0085B003AD2B806B4BD024FA
:100540009A461B7824069A40694B8146A2610E00A8
:10055000022229001868984607F062FF53463A00C5
:100560001B7829009A4013006261624A2A80A361C5
:1005700043460222186807F053FF53463A001B789F
:1005800029009A40130062615B4A2A80A3614346B6
:100590000222186807F044FF53463A001B781221E4
:1005A0009A40626113004A46127829706A70A3610A
:1005B00043468B4602222900186807F031FF534654
:1005C0003A001B7859469A40626113004A465278B5
:1005D00029806A70A361434602222900186807F047
:1005E0001FFF53463A001B7829009A4013006261AE
:1005F000424A2A80A36143460222186807F010FF8E
:1006000053461B7802AA9F406761D71C8A229346F3
:10061000893A91463A4C019603E0013CA4B2002C81
:100620001DD05A463A7000222A704A46D0269A4077
:100630004346360639001868B261012207F0F0FE21
:1006400043462A0000211868012307F0B9FE5346EB
:1006500049461B78994071612A785207DDD5C42339
:100660003B700023D0242B70994643462406019EFC
:100670000122A1611868390007F0D2FE43462A0022
:1006800000211868012307F09BFE534601221B78C6
:1006900093469A4062612B785A463370C2233B706E
:1006A0004B462B7053461B7839009A404346A26153
:1006B0001868012207F0B4FE43462A00002118689A
:1006C000012307F07DFE53465A461B780D489A4099
:1006D00062612A783178727005F062F805B0F0BC7A
:1006E000BB46B246A946A046F0BDC04652230020F4
:1006F000541800200A0400001480FFFF02030000C9
:10070000881300008C850010F0B5DE4657464E4633
:100710004546E0B5012687B002923200C64B05ACD3
:100720002380C64BD0279B461B78C54D9A403F0679
:100730008046019128682100BA61022207F070FE0C
:100740005B4632001B7821009A4013007A61BD4A53
:10075000286822800222BB6107F062FE5B463200FD
:100760001B7821009A4013007A61B74A28682280DA
:100770000222BB6107F054FE5B4632001B782868FA
:100780009A4013007A61022221002280BB6107F0A7
:1007900047FE5B461B789E407E614646321D924670
:1007A00012229146113A90462A00554692463278D6
:1007B0004946627042469A40534621701868BA61B1
:1007C0002100022207F02CFE5B4642461B780136D0
:1007D0009A407A61B542EAD155461A232100238016
:1007E0002868BA61022207F01BFE5B4642461B786E
:1007F00021009A4013007A61944A28682280BB61E4
:10080000022207F00DFE5B4642461B7828689A409C
:100810007A61130004AAD61C9A2232700022310099
:100820002270BB61013207F0FBFD01232200002191
:10083000286807F0C5FD5B4642461B7828689A4049
:100840001A237A612178237080235B420B43637003
:100850002100BA61022207F0E3FD5B4642461B78A5
:10086000A8469A407A610022924601329146784F1A
:10087000013F00D2D9E088223270524622704A46A7
:10088000D0259A4043462D0631001868AA610122FE
:1008900007F0C6FD4346220000211868012307F037
:1008A0008FFD5B464A461B7830219A406A61227868
:1008B0001142DDD04546002F00D1B0E08C22012747
:1008C0003270002222703A009A401300D0221206A1
:1008D0009361904631000122286807F0A1FD0123B1
:1008E00022000021286807F06BFD5B461B7842461A
:1008F0009F4057611B22100021780B2708400A42B5
:1009000000D094E079329246933A9146A8460390FB
:1009100004E0012002F034F95B461B785246327045
:10092000002222704A46D0259A4043462D063100C7
:100930001868AA61012207F073FD43462200186877
:100940000021012307F03CFD5B464A461B789A4094
:100950006A6113002278002A03D1013FFFB2002F01
:10096000D7D1039A454690469422D0273270002270
:100970003F0622703100BB610132286807F050FD4C
:10098000012322000021286807F01AFD5B4601229E
:100990001B789A407A61029A20781278111C824260
:1009A0003BD8CAB29246002A2CD001229146424638
:1009B0000027A846039201E05B461B789222327022
:1009C000002222704A46D0259A4043462D06310027
:1009D0001868AA61012207F023FD43462200186827
:1009E0000021012307F0ECFC5B464A461B789A4045
:1009F0006A612378019AD3550137FBB29A45DBD857
:100A0000039B98465246029B1A70404607B0F0BCC2
:100A1000BB46B246A946A046F0BD011CC1E70D4841
:100A200004F036FE02239846EFE7454646E70A48BB
:100A300004F0B6FEF6E7C04604F7FFFF522300209D
:100A400054180020087F00001480FFFF020C0000F3
:100A5000102700009C850010CC850010F0B5D6460C
:100A60004F46464604000800C0B5794E82B0B046F5
:100A70003060784E0AA93270774A0F781370774B3E
:100A80000BA99A460D781F70754F0CA909783D7017
:100A9000744D91462970210007F050FB5346012107
:100AA000187801F0E5F84B460121187801F0E0F8DC
:100AB00030780126012101F0DBF80521387801F0BA
:100AC000D7F8387801F0EEF832003B78D0249A401D
:100AD000240662626261287801F0E4F832002B7823
:100AE00001AD9A406262626132005F4B29002B8047
:100AF0003B789A404346A2611868022207F090FCB6
:100B000032003B7832209A40626102F039F83200BC
:100B1000564B29002B803B789A404346A2611868C7
:100B2000022207F07DFC32003B7829009A40130036
:100B300062614F4A2A80A36143460222186807F087
:100B40006FFC32003B7829009A4013006261494AE9
:100B50002A80A36143460222186807F061FC320034
:100B60003B7829009A406261130058222A80A361D1
:100B70004346563A186807F053FC32003B78290088
:100B80009A40130062613C4A2A80A36143460222D4
:100B9000186807F045FC32003B7829009A401300A2
:100BA0006261364A2A80A36143460222186807F030
:100BB00037FC32003B789A4062611300A8229246CB
:100BC0006A465146D17000222A70A36143461868D4
:100BD0006B469146D91C013207F022FC43462A009D
:100BE00000211868012307F0EBFB32003B785146E7
:100BF0009A40626113006A46D1704A462A70A36126
:100C0000434618686B460132D91C07F009FC43467D
:100C10002A0000211868012307F0D2FB32003B783C
:100C200028219A4062612B78297003210B436B7055
:100C30004346A26129000222186807F0F1FB3B78C5
:100C40009E40666102B0E0BCBA46B146A846F0BD1F
:100C50005418002056230020542300205323002042
:100C60005223002055230020020F0000548DFFFF67
:100C7000563E00005A1E00002A400000223D00009F
:100C8000F0B5DE4657464E4645461A23E0B58BB0D2
:100C900004AA13810122DB4BD0259B461B7890468A
:100CA0009A40D94E2D06019002913068AA6106A99A
:100CB000022207F0B5FB5B4647461B7810229F4097
:100CC00000216F6106A802F09DFFD04B05AC238088
:100CD0000222AF612100306807F0A2FB5B4642466A
:100CE0001B7830689A406A61130004AAD71C8822D6
:100CF0003A700022390092462270AB61013207F04F
:100D00008FFB012322000021306807F059FB5B466E
:100D100042461B7830689A4008236A612178237024
:100D200077330B4063702100AA61022207F078FB41
:100D30005B4642461B7839009A406A611300942250
:100D40003A70524630682270AB61013207F068FB9E
:100D5000012322000021306807F032FB5B46424647
:100D60001B7814219A406A612378217094390B43CF
:100D7000894663702100AA613068022207F050FBA7
:100D80005B4642461B7821009A406A6113000222AA
:100D900030682280AB6107F043FB5B4642461B781C
:100DA00021009A4013006A61994A30682280AB6141
:100DB000022207F035FB5B4642461B7821009A4031
:100DC00013006A61934A30682280AB61022207F007
:100DD00027FB5B4642461B7821009A4013006A615C
:100DE0008D4A30682280AB61022207F019FB5B4616
:100DF00042461B7839009A406A6113009A223A7081
:100E0000524630682270AB61013207F009FB0123C2
:100E100022000021306807F0D3FA5B4642461B7877
:100E20001A219A406A612378217049460B43637006
:100E30002100AA613068022207F0F2FA5B464246BE
:100E40001B789A406A610022FA2501329146ED0032
:100E500002E0002D00D1C8E088223A70524622708C
:100E60004A469A401300D0221206936190463900F8
:100E70000122306807F0D4FA0123220000213068F3
:100E800007F09EFA5B464A461B7841469A4030205E
:100E90004A612178013DADB20842DAD0002D00D17F
:100EA000A3E09A233B7053462370434639009A616E
:100EB0003068012207F0B4FA0123220000213068D3
:100EC00007F07EFA5B464A461B7830689A404346F4
:100ED0005A611A232178237065330B4063704346AF
:100EE00021009A61022207F09BFA5B464A461B7872
:100EF00039009A401300424653618C223A705246A0
:100F00002270424630689361012207F089FA01237A
:100F100022000021306807F053FA5B4649461B2245
:100F20001B7810009940434659612378184000907F
:100F30001A4257D194233B70009B012223704346F1
:100F400030689961390007F06BFA01232200002113
:100F5000306807F035FA5B461A784B4641469340B5
:100F60004B6123789846102B49D8DBB29A4643460A
:100F7000002B3AD00123994643460025B0460393FF
:100F800092233B70002323704B46D02693403606B5
:100F9000B361434601223900186807F041FA43461D
:100FA000220000211868012307F00AFA5B461A782C
:100FB0004B46934008207361237804A909184B55C8
:100FC0000135EBB29A45DBD8039B9846052B0CD133
:100FD0000522019806A902F01BFE4246029B0098DA
:100FE0001A7005E00D4804F053FB0223180000932B
:100FF0000BB0F0BCBB46B246A946A046F0BD1023DC
:10100000B3E7C046522300205418002004F7FFFF26
:101010001293FFFF12200000020C0000F885001060
:10102000F0B5DE4657464E464546E0B5D04A85B057
:10103000D04B03AC9346238013780122D0259046F1
:101040009A40CD4E2D0607008946AA612100022252
:10105000306807F0E5F95A46137842469A404B4605
:1010600059466A611F700093C44B022223800B789B
:10107000414699403068A961210007F0D1F95946ED
:101080000B784146994069610B0002A9CF1C882268
:1010900000213A708A462170873AAB613900306886
:1010A00007F0BEF9012322000021306807F088F91B
:1010B000594642460B7830689A4008236A61217885
:1010C000237077330B4063702100AA61022207F07E
:1010D000A7F959460B7841469940942269610B0063
:1010E00051463A702170933AAB613900306807F08D
:1010F00097F9012322000021306807F061F9594671
:1011000042460B7814219A406A6123782170943901
:101110000B43894663702100AA613068022207F000
:101120007FF959460B78414602229940306869613F
:101130002280A961210007F073F959460B784146D6
:10114000994069610B001221009A217012782100E8
:1011500062703068AB61022207F062F95B4642467A
:101160001B7821009A4013006A61854A306822800A
:10117000AB61022207F054F95B4642461B78390006
:101180009A406A6113009A223A705246306822707F
:10119000AB61013207F044F90123220000213068DD
:1011A00007F00EF95B4642461B781A219A406A61A5
:1011B0002378217049460B4363702100AA6130688F
:1011C000022207F02DF95B4642461B789A406A617D
:1011D0000022FA2501329146ED0002E0002D00D1F7
:1011E000C2E088223A70524622704A469A40130062
:1011F000D02212069361904639000122306807F030
:101200000FF9012322000021306807F0D9F85B466E
:101210004A461B7841469A4030204A612178013D78
:10122000ADB20842DAD0002D00D19DE09A233B7088
:1012300053462370434639009A613068012207F013
:10124000EFF8012322000021306807F0B9F85B466F
:101250004A461B7830689A4043465A611A232178DF
:10126000237065330B406370434621009A6102226C
:1012700007F0D6F85B464A461B7839009A401300BF
:10128000424653618C223A70524622704246306880
:101290009361012207F0C4F8012322000021306885
:1012A00007F08EF85B4649461B221B7810009940D8
:1012B000434659612378184001901A4251D1942332
:1012C0003B70019B012223704346306899613900CD
:1012D00007F0A6F8012322000021306807F070F81B
:1012E0005B461A784B46414693404B612378191C64
:1012F000102B34D8C9B28A460025002B27D00123F1
:10130000B046994601E05B461A7892233B70002371
:1013100023704B46D02693403606B36143460122E4
:101320003900186807F07CF843462200186800214D
:10133000012307F045F85B464A461B789A407261E4
:101340002378009A53550135EBB29A45DBD80198C2
:1013500005B0F0BCBB46B246A946A046F0BD102180
:10136000C8E7084804F094F902230193EFE7C04668
:10137000522300201A0700005418002004F7FFFF32
:10138000020C0000F8850010F0B5DE4657464E46C8
:101390004546E0B5EA4B8DB002AA93810B78012651
:1013A00093734B7808A8D3738B7804AC1374CB7801
:1013B000D02753740B79002193740023D3741375D1
:1013C000102202F01FFC022332002380DD4BDE4D91
:1013D0009B461B783F069A4021002868BA6102228A
:1013E00007F01EF85B4632001B7821009A4013007C
:1013F0007A61D64A286822800222BB6107F010F881
:101400005B4632001B7821009A4013007A61D04A73
:10141000286822800222BB6107F002F85B461B7835
:1014200005AA9E4002A97E618C4601921322624465
:10143000924612229146113A90462A005D46934602
:1014400005AE32784946627042469A405B4621704A
:101450001868BA612100022206F0E2FF42462B78AA
:1014600001369A407A61B245EBD15B46AB461D002E
:10147000B84B210023802868BA61022206F0D0FF11
:101480005B4642461B78A8469A407A6102AAD61D5E
:101490008A229246893A9146AF4F03E0013FBFB29C
:1014A000002F1DD052463270002222704A46D025AD
:1014B0009A4043462D0631001868AA61012206F0C1
:1014C000AFFF4346220000211868012306F078FF91
:1014D0005B4649461B789940696122785207DDD501
:1014E000C423D0274546337000233F0623700122D2
:1014F0002868B9613100994606F092FF0123220065
:101500000021286806F05CFF5B4601221B789046AC
:101510009A407A611300227828689246514602AABE
:10152000D174C22232704A4631002270BB6101324E
:1015300006F076FF012322000021286806F040FF14
:101540005B4642461B7851469A407A61227802AB4C
:1015500082481A7504F024F9814B424623805B4689
:101560001B7821009A402868BA61022206F058FFD1
:101570005B4642461B7821009A4013007A61794A03
:10158000286822800222BB6106F04AFF5B46424681
:101590001B7821009A4013007A616D4A28682280E6
:1015A0000222BB6106F03CFF5B4642461B782100ED
:1015B0009A4013007A61022228682280BB6106F0FB
:1015C0002FFF5B46424609211B788C469A407A6180
:1015D00005AA62449146122292464A46A946019DB6
:1015E00000922A785146627042469A404B462170DA
:1015F00018682100BA61022206F012FF5B464246DB
:101600001B7800999A4001357A61A942E9D14D468B
:101610001A23210023802868BA61022206F000FF05
:101620005B4642461B7821009A4013007A614E4A7D
:1016300028682280BB61022206F0F2FE5B46424629
:101640001B7831009A407A6113009A22327000228E
:1016500028682270BB61013206F0E2FE01232200FD
:101660000021286806F0ACFE5B4642461B782868DD
:101670009A401A237A612178237080235B420B43BE
:1016800063702100BA61022206F0CAFE5B46424640
:101690001B78A8469A407A61002292460132914610
:1016A000324F013F00D2E3E088223270524622706E
:1016B0004A46D0259A4043462D0631001868AA6153
:1016C000012206F0ADFE43462200002118680123E6
:1016D00006F076FE5B464A461B7830219A406A61E6
:1016E00022781142DDD04546002F00D1B5E08C2292
:1016F00001273270002222703A009A401300D02253
:1017000012069361904631000122286806F088FE97
:10171000012322000021286806F052FE5B461B7858
:1017200042469F4057611B2221780B270A4200D076
:10173000A0E079329246933A9146A8461DE0C04611
:101740009370000052230020541800200A04000067
:101750001480FFFF02030000881300008C85001036
:1017600004F7FFFF087F0000020C000010270000B4
:10177000012001F005FA5B461B78524632700022C8
:1017800022704A46D0259A4043462D0631001868FB
:10179000AA61012206F044FE434622001868002197
:1017A000012306F00DFE5B464A461B789A406A61AB
:1017B00013002278002A03D1013FFFB2002FD7D1B6
:1017C0009422D0273270454600223F062270310015
:1017D000BB610132286806F023FE012322000021AC
:1017E000286806F0EDFD5B4601221B789A407A617D
:1017F0002278111C102A2ED8C9B28A46002A2FD06E
:10180000012200279146A8469222327000222270BF
:101810004A46D0259A4043462D0631001868AA61F1
:10182000012206F0FDFD4346220000211868012335
:1018300006F0C6FD5B464A461B7818209A406A614E
:10184000227802A90918CA550137FAB29245DBD8A5
:1018500002AB187E05E01021CEE7084803F018FF20
:1018600000200DB0F0BCBB46B246A946A046F0BD74
:1018700045463CE7024803F093FFF1E79C850010E2
:10188000CC850010F0B5DE464E4657464546E0B5DD
:1018900087B003AF38700E201C000D0068441100A3
:1018A00006227D7002F0B4F92100042205A802F09E
:1018B000AFF90122B54B02AC2380B54B9246984656
:1018C0001B78B44D9A401300D022120691469361C2
:1018D00021000222286806F0A3FD434652461B78E9
:1018E00028689A4013004A4653616A46D61D8822EA
:1018F00032700022934622704A46310093610122E1
:1019000006F08EFD012322000021286806F058FD14
:10191000434652461B7828689A404B465A61082332
:101920002178237077330B4063704B4621009A6116
:10193000022206F075FD434652461B7831009A405C
:1019400013004A465361942232705A4622704A4626
:1019500028689361012206F063FD01232200002123
:10196000286806F02DFD434652461B7828689A40A9
:101970004B465A61142321782370943B0B436370C8
:101980004B4621009A61022206F04AFD4346524628
:101990001B7821009A4013004A465361022222809C
:1019A0004A4628689361022206F03AFD43465246B1
:1019B0001B7849469A404A6106AA93462A00454642
:1019C00090463A781221627052469A4013004A4675
:1019D00021709361434602222100186806F020FD21
:1019E00052462B7849469A4001374A61BB45E8D1B7
:1019F0004346A8461D00684B286823808A6102225E
:101A0000210006F00DFD434652461B7849469A4098
:101A10004A610022FA27934601329246FF0002E013
:101A2000002F00D194E0882232705A46227052462C
:101A30009A401300D0221206936191463100012290
:101A4000286806F0EDFC012322000021286806F03A
:101A5000B7FC434652461B7849469A4030204A61BB
:101A60002178013FBFB20842DAD02868002F6FD03A
:101A70009A2333705B4623704B4631009A610122F2
:101A800006F0CEFC012322000021286806F098FC15
:101A9000434652461B7828689A404B465A611A239F
:101AA0002178237065330B4063704B4621009A61A7
:101AB000022206F0B5FC434652461B7831009A409C
:101AC00013004A4653618C2232705A4622704A46AD
:101AD00028689361012206F0A3FC01232200002163
:101AE000286806F06DFC434652461B781B219A403D
:101AF00013004A460F00536122781740114220D14B
:101B0000902232704A463100277028689361012282
:101B100006F086FC012322000021286806F050FC14
:101B2000434652461B789A404B465A6123781B071E
:101B30000ED5380007B0F0BCBB46B246A946A04659
:101B4000F0BD164803F0A4FD434652461B789A4068
:101B50008C23D027337000233F0623703100BA61F5
:101B60002868012206F05CFC01232200002128687D
:101B700006F026FC43461A78012393407B612178C6
:101B8000074803F00DFE0227D3E7C0460492FFFF8B
:101B90005223002054180020020E0000F885001087
:101BA00014860010F0B5C64600B582B06B46D91C4D
:101BB000902301250B7000232A00164F01AC2370DF
:101BC0003B78D0269A40144B36069846B261186886
:101BD000012206F025FC434622000021186801235B
:101BE00006F0EEFB2A003B7810219A4072612378C0
:101BF000217008398B4363704346B2612100022291
:101C0000186806F00DFC3B789D40756102B080BC01
:101C1000B846F0BD522300205418002030B587B0DC
:101C20006B4604001022981D0D00002101F0EAFF10
:101C30006A463023911D01A813715471FEF772FC9E
:101C40006B4601A90800DA1CFEF75EFD041E07D1F1
:101C50001022280001A901F0DBFF200007B030BDF1
:101C6000024803F015FD0224F7E7C0463086001055
:101C7000094A83009A1810B51468402254408032F3
:101C80002240064CC000A44663441A60044B9C46A4
:101C90006044416010BDC04604C0014004D0014012
:101CA000004001400123D0228340120693629361D9
:101CB000094A83009A1811684022514080320A4034
:101CC0000649C0008C4663441A60054B9C460523B8
:101CD000604443607047C04604C0014004D00140E6
:101CE000004001408023DB051868000F7047C046A4
:101CF0000FB400B5084883B003F0CAFC049B002B66
:101D000007D005A91800019103F01EFB034803F05A
:101D1000BFFC012003F030FB54860010F485001056
:101D200070B5EFF3108C72B60D4D2B68002BFCD004
:101D3000BFF35F8F0724CB08C618C05C01230C409B
:101D4000A3401C000440034207D118433070BFF386
:101D50005F8F2C608CF3108870BD1000FFF7C8FFF8
:101D60002C0100D0F8B54746CE46884680B5EFF343
:101D7000108C72B6214D2C68002CFCD0BFF35F8F05
:101D80009A422CD8D4080727055D0619012417406C
:101D9000BC402C421FD007210127894609E0D40806
:101DA000055D06194C4639001440A1400C0029423B
:101DB00011D001329342F2D201204042BFF35F8F33
:101DC00000220E4B1A608CF3108800280FDBC0BC79
:101DD000B946B046F8BD254310003570EEE7BFF3B5
:101DE0005F8F00232B608CF3108801204042434614
:101DF000002BECD00898FFF77BFFC0462C0100D0E9
:101E0000044A1078431CDBB2172B00D9102313703F
:101E10007047C0465010002010B5064B064C82B0EB
:101E20000100009318221F232000FFF79BFF02B040
:101E300010BDC04664860010981D00200021044B90
:101E4000044ABFF35F8F02C39342FAD17047C04682
:101E5000000100D0800100D0054B064A1360064AFD
:101E6000136053609360D360136153619361704753
:101E70008080808000E400E004E400E01F2318403C
:101E80001E3B8340002905D0C021044A490053501D
:101E900013607047802201498B50FAE700E100E0AF
:101EA00001228240034B1B6813405A1E9341D8B253
:101EB0007047C04600E100E001238340014A1360FF
:101EC0007047C04600E200E0084B10309B6880007D
:101ED000C358002B07D0064A00209B1A2F229A4293
:101EE0004041C0B270470020FCE7C04600ED00E072
:101EF0005410002070B50D00EFF3108672B60F4A33
:101F00001368002BFCD0BFF35F8F0D4B10309B6824
:101F100084001B590B4A934203D09D4201D001F02B
:101F2000A3F9074B9B681D51BFF35F8FBFF35F8F12
:101F30000022024B1A6086F3108870BD240100D085
:101F400000ED00E0CD010010F0B557464E46DE46EC
:101F50004546E0B585B0060000911700EFF3108B01
:101F600072B66A4A1368002BFCD0BFF35F8F00255E
:101F7000674B5D579A46002D00DAA9E06B00654C6F
:101F800001935B199B009846A146C1444B465246BB
:101F90009B7910361370604BB6009B6899590B1BE8
:101FA0002F2B33D95D4B994200D0ACE0019B4246C8
:101FB0009C465B4B6544AD0063535A4B0232A218FA
:101FC000043B9B1A1B05584A5B0D651913436B8034
:101FD000564B0121AB80FF23AB71009BEF71AB60CF
:101FE0004B460B4319004C4B9B689951BFF35F8FD5
:101FF000BFF35F8F0022454B1A608BF3108805B04A
:10200000F0BCBB46B246A946A046F0BD01200A007E
:102010008243D3798C46BB4231D8454613004449AC
:102020001B1B5B415943090D3D4B63533D4B02352F
:102030006519043B5B1B1B053B4D5B0D2B43AA46FF
:102040004D466B800425AC465546E044131F44447E
:102050001B1B1B055B0D1D434B46997100999D8011
:1020600099604946DF71334B01431360BBE7580069
:10207000C01880002018C179B9422FD90200062368
:10208000D356002BF3DA02932B4B61460393131DB7
:102090009A4604235B429C46E14450464B461B1A39
:1020A0001B055B0D9C46204B957198466346404648
:1020B00003439380019B5A199200039BA418A380A9
:1020C000029B1C4AA371009B2260E771A3608AE710
:1020D00001F0CAF8002553465D574FE790880293F8
:1020E0004005131D9A46031561469C464046D4445C
:1020F000634604302018181AE0230005400D1B0227
:1021000018430390C5E701F0AFF84FE7240100D072
:102110005A2300205410002000ED00E0CD010010F3
:1021200000A1FFFF8410002000E0FFFF01BDFFFFC2
:10213000AAAA00000148804701BD0000F0B5DE46B4
:1021400057464E464546E0B50C0083B0EFF3108885
:1021500072B6634A1368002BFCD0BFF35F8F614BEC
:1021600061499A68030010339F00D55900938D424E
:1021700043D0A54254D05D4EAA1B2F2A3DD85C4BBC
:102180009C461B689A4601231A0099468240534692
:1021900013401F2201934B46024093409A468022EF
:1021A000634650469850BFF35F8FEFF305839B461D
:1021B000002B37D0009B5B4501D001F055F82A0079
:1021C0004B469A439068844208D177E04B005B18F5
:1021D0009B00F3189868844236D01A0006215156A5
:1021E0000029F3DA844255D0019B002B27D0C0226E
:1021F00051463F4B5200995019603A4B9B68DD5154
:10220000BFF35F8FBFF35F8F0022354B1A6088F3F7
:10221000108803B0F0BCBB46B246A946A046F0BD4C
:102220000D00EAE72A004B469A4390688442D5D1D4
:1022300006201056130000280ADA0D0032E0802331
:1022400051462B4AD150D8E706201856002822DBE9
:1022500042001118890074188946A1689960E179D3
:10226000D971062161569971002925DBA488F11ADC
:10227000640524154C440919E0240905490D24027C
:102280002143998013181B4A9B001178F318997108
:102290001070A9E713005946002914D1FF3191713C
:1022A0001549918013490A789A71144A9B1B5B4126
:1022B0005A43120D0A7097E71149E2E706201056BB
:1022C00013000028C4DA0F4A0F49D21A083A500204
:1022D000400D014399800D4952080A43DA8083E793
:1022E000240100D000ED00E0CD01001054100020CA
:1022F00000E100E05A23002001BDFFFFAAAA000070
:1023000001BD00008E10002000F0FFFF00F8FFFF6D
:1023100070B501240443EFF30581EFF3108C72B61E
:10232000214A1368002BFCD0BFF35F8F1F4B0500C1
:102330001F4AED1A6D416A43120D1E4D8900AE68A9
:1023400052B27658A6421CD00621595691421CD052
:1023500012215956914222D01E215956914220D025
:102360002A2159560324914210D0134B19781A7020
:102370008171BFF35F8F00220B4B1A608CF31088C2
:1023800070BDAB680D4C5C50EFE70024610009198B
:1023900089005B18FF21997109499980E5E70124BB
:1023A000F4E70224F2E7C046240100D054100020D4
:1023B000AAAA000000ED00E05A230020CD01001081
:1023C00001BDFFFF10B5084B084C82B0010000931F
:1023D000002205232000FFF7C5FC002801DB1F2396
:1023E000181A02B010BDC046808600105E2300207F
:1023F000024B9C46614489000160704740000034F4
:1024000070B5114C114DAC420FD2FF262368002B42
:102410000CD0FFF7F5FC01002000FFF7E9FFA680D4
:10242000BFF35F8F0834AC42F0D370BDFFF7E8FC18
:1024300001002000FFF7DCFF2671BFF35F8F083437
:10244000AC42E3D3F1E7C046301100203811002040
:1024500010B50400FFF7D4FC01002000FFF7C8FF0F
:10246000FF232371BFF35F8F10BDC04610B504007A
:102470000120FFF7D1FC034BC3189B002360BFF37F
:102480005F8F10BD40000034034B9C4661448900BF
:102490000160BFF35F8F7047400000340A4B19683A
:1024A000EFF3108072B60A68002AFCD0BFF35F8F8A
:1024B0001B68BFF35F8F00221A6080F3108840BF53
:1024C000002000217047C0462C230020F0B5DE46D6
:1024D00057464E464546E0B583B0EFF305820323E9
:1024E0001340B54A990052580091904601229A40F3
:1024F000B24B93461A60B24B01932EE043469B8841
:102500001BB2002B00DB99E043469B79002B00D0E7
:10251000DDE0434608241C5F002C00DA06E1434658
:102520005A6963001B19DB00D3189D68DC686B1CBB
:1025300000D107E1A34B00999C4661449A6A0B695C
:10254000A81A9B1A984200D20D619E4800F0AEFB7B
:102550008C4200DDEAE000D126E15B469948436306
:10256000434608229B5E9946002BC7DB42465269D0
:102570005B0092464B44DB009A4453469E68DF68FA
:1025800000F094FB8F42B9DC00D100E1002F00DAAB
:10259000E1E05246534654691B69019A934200D1C7
:1025A000D4E0414652460820085E528800042100CB
:1025B0001043984704000D0023002B4300D1CAE0CC
:1025C000002D00DBE7E030003900001BA941534635
:1025D0009860D96000229A5E002A8FDB43465D69CD
:1025E00053009C18E4002C19A768E4688C4200DDB5
:1025F00084E702D1874200D980E746463281083617
:102600000DE08C4200D1D3E01E000023F25E002AD0
:102610000ADB53009C18E4002C19A768E4689B1897
:10262000DB00EB188C42ECDD53461A804B463380BE
:1026300043469B881BB2002B00DA65E743461A69C4
:10264000EFF3108172B61368002BFCD0BFF35F8FDD
:1026500043469E88012342465B42938036B213690B
:10266000BFF35F8F00221A6081F31088002E00DA1A
:102670004AE743465D69083342469C467700BF19E6
:10268000FF00EF19BB68604698460823D15E92466A
:10269000FC68002907DA0EE0A2424FD018000023A0
:1026A000C15E002906DB4B005B18DB00EB18DA6823
:1026B000A242F1DD524606800023FE5E3980002EE4
:1026C000DCDA904643469B79002B00D121E70023BA
:1026D00042469371434646460821595E08364B1CD4
:1026E00024D047468946556902E006004B1C18D0A5
:1026F0004B005B18DB00E8180A008C46E95E438853
:102700001BB2002BF1DA01235B42DC178360C4604B
:102710004A4503D031803B8903803A81E1464B1C16
:10272000E6D14C46B846002C00DBF8E640BF03B0CB
:10273000F0BCBB46B246A946A046F0BD9A684245E9
:10274000ACD9B7E7631C00D0F4E6FEE620002369AD
:102750009847002825D1534642461B8813811269A9
:10276000EFF3108372B611680029FCD0BFF35F8FBE
:102770004246514652880A80424649465180126973
:10278000BFF35F8F0021116083F31088B6E68642A5
:1027900000D8FBE6B2E60B4800F088FA0019694160
:1027A00015E76568246807E7854200D8D5E6BDE7E8
:1027B000874200D828E737E7102200203C70054008
:1027C000CD2400100040054070B52E4C2569002D29
:1027D00004D00A212C48FFF70BFE70BD2B4E0321BD
:1027E000300000F059FAE660FFF70AFB284B03229D
:1027F0009C46D02322701B061B6801216370254B69
:102800006044A3600F23800020610220638063691D
:102810004942A18019800231198647311D835852DF
:1028200018315A5275325C39995218320131995225
:102830001832013199521832013199520835183243
:102840009D52023118329952183201319952183280
:10285000013199521832013199521832013199528D
:102860001832013199520C4B0C49DC600130356251
:10287000FFF740FB01210320FFF700FB084B1D6021
:10288000A7E7C0469C1000202C23002000400540F4
:1028900040000034FFFF100010220020CD24001063
:1028A00038600540004870479C100020F8B51F00B4
:1028B00008AB1B7804001600002B08D100F0FEF9CD
:1028C00032003B00121A8B41002B00DA53E02269E0
:1028D000EFF3108072B61368002BFCD0BFF35F8F4C
:1028E0000223E15E63694A005218D2009B18002956
:1028F00037DB1A8862802269BFF35F8F002515607D
:1029000080F31088069A9E60DF601A61079A5A6108
:102910005A8801325204520C101C002A1FD082B275
:102920005880080410432669EFF3108772B63268A6
:10293000002AFCD0BFF35F8FA2881A80A180236990
:10294000BFF35F8F00221A6087F310880B4923784A
:102950008C4601329A40E36863441A60F8BD012056
:10296000DDE72369BFF35F8F00221A6080F31088D0
:1029700001204042F2E70020F0E7C0463C20000082
:1029800070B501000469EFF3108C72B6206800285E
:10299000FCD0BFF35F8F02200D5E4C6968004019C8
:1029A000C0002418002D37DB208848800869BFF359
:1029B0005F8F002606608CF31088E36063880498BC
:1029C000013320615B0405985B0CA26060611A1CF6
:1029D000002B1FD093B22804628018430A69EFF3DA
:1029E000108C72B61368002BFCD0BFF35F8F8B88FE
:1029F00023808D800B69BFF35F8F00221A608CF3F8
:102A000010880B7801329A40CB6808498C466344A1
:102A10001A6070BD0122DDE70B69BFF35F8F0022F2
:102A20001A608CF3108801204042F2E73C2000003D
:102A300010B543890A1493421ADD53009B1842696A
:102A4000DB00D3180469EFF3108C72B62268002AF9
:102A5000FCD0BFF35F8F5A88090494B2090C8A42F4
:102A600008D00369BFF35F8F00221A608CF31088CF
:102A7000002010BD8022120214435C8001230269F1
:102A80008371BFF35F8F002111608CF310880449BC
:102A900002788C469340C268012062441360E8E7E4
:102AA0003C20000040787047F0B504000D00062679
:102AB0007642F717C64636196F4100B582B08F428D
:102AC00014D811D000F0FAF832003B00121A8B41F2
:102AD000002B17DC002B47D02000290000F02CF938
:102AE00002B080BCB846F0BD8642EBD9002200237C
:102AF00016001F0000F0E2F832003B00121A8B4172
:102B0000002BE7DD00F0DAF832003B00121A8B41AF
:102B1000002B0ADB00230193154B3200009315486C
:102B20003B00FFF72DFF0028D6DB00239C46B04674
:102B3000114A124E736A9F4204D8B16A8845CBD9B4
:102B40009F42C9D11168EFF3108072B60B68002B59
:102B5000FCD0BFF35F8F1368BFF35F8F61461960CE
:102B600080F3108820BFE5E7002AB5D0CAE7C04649
:102B70009D2400109C1000202C23002000400540C4
:102B800070B5060000F09AF8FA2204000D00002348
:102B900030000021920000F0DFFF8023001969411E
:102BA0001B06994202D3012002494042FFF77CFFF5
:102BB00070BDC046FFFFFF7FF0B5CE46474680B5EB
:102BC00004000D0083B0EFF305878846002F3ED147
:102BD0002E4EA1463378F06804339B00816A1B585F
:102BE000601A5B1A98420ED320BF294900204B6A15
:102BF000AB4203D38A6A0130944231D803B0C0BCDF
:102C0000B946B046F0BD00F059F822002B00121A68
:102C10008B41002B2FDB1F4B2200009330002B0039
:102C20000197FFF7ADFE011E25DD194B5A6AAA4236
:102C30001BD220BF3000FFF7FBFE154A0020536A6D
:102C40004345DBD3926A01309145D7D908E010495A
:102C500000204B6AAB42D1D38A6A0130A242CDD266
:102C60005B1B5A1E9341D8B2C8E79B6A9C42E1D9CC
:102C7000AA42DFD1DDE7064A0020536A4345BDD3AF
:102C8000926A01209145B9D9EAE7C0469C1000201C
:102C9000004005409D24001010B5024A0248FFF78D
:102CA0003FF810BD9C8600109C1D00200300416A67
:102CB0000A00986A596A8A42FAD17047034B596AE6
:102CC0000A00986A596A9142FAD17047004005405B
:102CD00070B504000D00174A536A1900966A536ACA
:102CE0008B42FAD13000190024184D41AB4216D85E
:102CF00013D0104A2B00526A954203D90D494A6AF3
:102D00009A42FCD39A4207D10A4A02E0516A994298
:102D100002D1916AA142F9D370BDA642E9D9054B0F
:102D20005B6A1C005A1CEFD0012301246442E517A2
:102D30005B42E3E700400540064A536A9942FCD8EB
:102D400007D1044B02E05A6A914202D19A6A824248
:102D5000F9D3704700400540F8B5040006200D0087
:102D600000F078F9002844D0374B3849E3185A1E50
:102D700093418022120494465B429B0D344A9B058A
:102D800063441360334A136018000A689043FBD110
:102D90002D4B314AE31859424B4180215B004900D9
:102DA0000620995200F056F92900C00000F062FB9D
:102DB0000130C3091ED1402701226262A362266B43
:102DC000F30722D4E36A254B0620E51800232B6085
:102DD000266300F03FF93900800000F04BFB7023C0
:102DE000E26A5A400E3313402B601D4B23630323CA
:102DF000A364F8BD1B4A93421ED900231A4A1B4FF5
:102E00006262A362266BF307DCD5194B144AE31800
:102E10001A60656AA36A0620AD01ED1800F01AF980
:102E2000144900F027FBAD020100280000F022FB4E
:102E30000021FFF74DFFC5E74006800E9F011A00F5
:102E40003F180300B9E7C0460080FCBF08C000403F
:102E500000E0004000F00040382300202C1000006B
:102E600001030000FEFF0000FFFF0000C0FF3F0065
:102E7000303000004E0E0000F8B5DE464E46574694
:102E80004546E0B58B4605000A991800160000F08B
:102E9000F1FA0A9B6C001F02324B64199C46A40095
:102EA0006444636881469F4200D967602B1FDBB290
:102EB0009846012B30D9C02380229B01E3181201D0
:102EC0001A60294BAD0059599A4600291BD173014C
:102ED000E026226853401E40802342465B01E318EF
:102EE0001E60012A30D9802380229B01E318120141
:102EF0001A6053464A4667605A51F0BCBB46B24618
:102F0000A946A046F8BD586900F0B4FA0130430064
:102F10001B18033BFDD2DAE75B46012BCBD1C02364
:102F200003229B01E3181A60023AA3681A42FCD0FC
:102F30007301E0262268AD0053401E4080230A4AF8
:102F40005B019246E3181E605A46216851400322F5
:102F50000A401A6001225B469A40A3681A42FCD0DC
:102F6000C1E7C04600800040A01D0020F0B54646E5
:102F70004F46D646C0B51F00344B44009C4624182B
:102F8000A4006444636888461600FF2B02D880239F
:102F90005B006360031FDBB29A46012B30D9C0236C
:102FA00080229B01E31812011A60294B85005959B0
:102FB000994600291BD17301E026226853401E4028
:102FC000802352465B01E3181E60012A30D980231A
:102FD00080229B01E31812011A6080235B0063606A
:102FE0004B465F51E0BCBA46B146A846F0BD5869B1
:102FF00000F040FA013043001B18033BFDD2DAE732
:103000004346012BCBD1C02303229B01E3181A6056
:10301000023AA3681A42FCD07301E02622688500B8
:1030200053401E4080230A4A5B019146E3181E600C
:1030300042462168514003220A401A600123424659
:103040009340A2681342FCD0C1E7C0460080004014
:10305000A01D0020014B8000C0587047A01D00201B
:10306000F8B5040021481E0017000D0000F002FA18
:103070000100380000F0FEF9069B36041B031E43D6
:103080002368002B20DB1A4B1A49E3185A1E934180
:103090008022920194465B421B0B174A1B03634438
:1030A0001360164A13601F000A689743FBD1144B44
:1030B0002560E2182123A06013602368002BFCDA4E
:1030C0000823E6601360F8BD3F2322681340AB423B
:1030D000D9D1A3681B051B0D8342D4D1EE22E3682E
:1030E000D2021340B342CED1EDE7C046001BB70079
:1030F0000040FDBF08C0004000E0004000F000407C
:103100000430000010B580241C4BE4051C6000282E
:103110001AD001231A4C18431A4BDC611A4C444054
:103120001C62596298628021144BC90519601748C6
:1031300017490860E021C9041960002A07D18022DC
:10314000144B12061A6010BD0E4BD861EBE7530109
:103150009B1A9B009A18802312015B049A4209D2A1
:1031600013000D490B60074B5A608022094BD205B2
:103170001A60E8E7094B1A00F3E7C04600B00540C3
:10318000D3C007B0008005402D3FF84FFCFF010081
:103190000820014000A0054000220020FFFFFF00A2
:1031A0008023024A9B000B43D36270470080054096
:1031B000142310B50100188804331B88984710BDEC
:1031C000162310B50100188802331B88984710BDDC
:1031D000F8B54746CE4680B50F1E19D01423994640
:1031E000043304000025012698464B4618884346C0
:1031F00021681B88984701C4431E9841013540420D
:103200000640AF42F1D13000C0BCB946B046F8BD6F
:103210000126F8E7142370B50400188804331B88CE
:103220000D000549984703000020002C01DB013008
:10323000A04029009847C04655420000AA23064AEC
:103240001B0113602F230549D360054B1960536898
:10325000002BFCDA7047C0460040024000B0FA0084
:10326000006002407047C04610B50148FEF740FDBF
:10327000C086001070B5074D074EB54209D2002434
:10328000013E761BB60808CD984723000134B342AF
:10329000F9D170BD80840010BC840010054B064A33
:1032A00006491A60064A074B1A6010000B689843DB
:1032B000FBD1704700E00040BFCDFBFE08C00040DE
:1032C000FE7F3C0000F00040044BDB6C002B03D180
:1032D0008022034BD2021A607047C0460000115092
:1032E0004C201150044A054B1A60054A1368DB0153
:1032F0008033FBD17047C046FFFFFF0100F0004064
:1033000008C000404022034B9A675A671A67DA6682
:103310007047C04600F0014010B5FEF78FFD10BDAC
:1033200070B5044D044CA968C022200000F070FC68
:10333000AC6070BD00ED00E000000020002310B57F
:10334000294C82B0A367FFF779FF0122274B1A604F
:10335000636C012BFCD10322254B1A60224A936B2C
:10336000012BFCD1013300930121224A224804336E
:10337000FFF776FE052301210093204A2048FFF73E
:103380006FFE0022022104201E4BFFF7EFFD0022FA
:10339000012105201C4BFFF7E9FD00220021072039
:1033A0001A4BFFF7E3FD002200210820174BFFF71F
:1033B000DDFD8023DB000093002200210920134B58
:1033C000FFF75AFD0022104B00210620FFF7CEFD2B
:1033D0000420FFF73FFE0E4900F04CF801000020EA
:1033E000FFF7DEFE02B010BD008000403CB00040A0
:1033F00030B00040002F685900800240008C8647A2
:1034000000C00240001BB70040597307006CDC028B
:1034100040420F0001480421014B1847C010002012
:10342000D1310010124A936F9B0815D29066D16675
:10343000002905D0FFE7FFE7FFE7516F106F7047E6
:1034400004B580210906C2175140002800D0C843A6
:1034500004F0CEFF002104BDF0B5146E556E576F19
:10346000166FFFF7E3FF1466556657671667F0BDE2
:10347000000000D0114A936F9B0813D2106651666A
:10348000002905D0FFE7FFE7FFE7516F106F704796
:1034900004B5002801D00020C04304F0A9FF00219A
:1034A00004BDC046F0B5146E556E576F166FFFF72A
:1034B000E5FF1466556657671667F0BD000000D03B
:1034C00094464A4A926F9208624601D228E0C0466A
:1034D000F0B5464E346E756E776F366F00F020F89B
:1034E0009446424A14665566576716676246F0BDB1
:1034F00094463E4A926F9208624601D254E0C0461A
:10350000F0B53A4E346E756E776F366F00F04CF84A
:103510009446364A14665566576716676246F0BD8C
:10352000002B24DB11D000293EDA00B5C94340420C
:1035300000D1013100F038F8C943404200D10131D7
:10354000DB43524200D1013300BD002AEBD10028F9
:1035500001D1002905D00020C90FC90701D1C043FE
:10356000410800B504F03CFF0022002300BD00B577
:1035700000290ADBDB43524200D1013300F014F88A
:10358000C943404200D1013100BDC943404200D18E
:103590000131DB43524200D1013300F005F8DB4337
:1035A000524200D1013300BD002923D1002B18D194
:1035B000002A0CD0BC460D4F38667A6600210023E5
:1035C000FFE7FFE7FFE77A6F386F6746704700282D
:1035D00001D00748010000B504F002FF00220023DB
:1035E00000BD02000B00002000217047000000D049
:1035F000FFFFFFFF002B00D0BFE0130C28D1002AF3
:10360000E7D080B4114F39667A66FFE7FFE730B440
:10361000040C7B6F396F1B0423433B667A66FFE71C
:10362000FFE7FFE7C04684B27B6F3D6F1B04234377
:103630003B667A66FFE7FFE7C04600232C042D0CAB
:103640007A6F386F00196941B0BC7047000000D034
:10365000F0B594460025140E01D112020835140F5E
:1036600001D112010435940F01D192000235D40F1B
:1036700001D152000135D40B0134254F7C66254C15
:103680003C660E0C93B2FFE7FFE7FFE73C6F664333
:10369000360C7703BE467343DF0B5B04C01AB94197
:1036A000130C7343DB18C91ACE086643360CB644B4
:1036B00093B273431F0F1B01C01AB941130C73431C
:1036C0001F0B1B05C01AB941860D8F023E4366438E
:1036D000360C092D24DB520A7243801A7703460AFE
:1036E0006643360C16235B1BDE40DF40BF19644681
:1036F0006643821B7046043506330100D940A8405A
:10370000C01900D30131A24206D20023F0BD00004F
:10371000000000D0FFFFFFFF121B0130F3D3F1E7E1
:1037200009277F1BFE406446A2B27243801A00D272
:103730000139220C7243130C1204821A99410B00B6
:103740007046043513370100F940A840801900D3B2
:103750000131002B02D1A2420AD2F0BD013000D3C8
:103760000131121BFAD2013BF8D1A24200D2F0BDC6
:10377000013000D30131121BF7E7F0B51C0C00D06B
:1037800080E00CB400251C0A04D11B02160E334342
:10379000120208351C0B04D11B01160F3343120112
:1037A00004359C0B04D19B00960F334392000235E5
:1037B000DC0B02D192185B4101351C009718644163
:1037C0000134464F7C66464C3C660E0CFFE7FFE733
:1037D000FFE7C0463C6F6643360C7703BE4697B2A0
:1037E0007743C01B00D20139C01B00D201399FB200
:1037F0007743C91BC91B170C77437E04FF0B801B43
:10380000B941CE086643360C0C2D33DBB644120B9F
:103810001F053A431B0B97B27743C01B00D20139F7
:103820009FB27743C91B170C77433E043F0C801BA4
:10383000B941860D8F023E43664329277F1BFE4018
:103840000C3D7746AF40BF1930BCA2B2ABB2724359
:103850007343801A9941220C7243130C1204801A8C
:10386000994102000B000137001BA941F9D2781ED3
:103870000021F0BD0C277F1BFE4077467F0BAF4039
:10388000FF19E0E700245D1C07D0144F7D66396600
:10389000FFE7FFE7FFE7FFE73C6F95B29EB26543A6
:1038A0006643401BB141150C1E0C6543664336044C
:1038B0002F0C3E432D04401BB141994204D202001B
:1038C0000B0020000021F0BD01D19042F7D3801AF7
:1038D000994101349942F2D3F6E70000000000D08C
:1038E000FFFFFFFF48404140484018B4134B5B685E
:1038F000019308BD18B4114B1B68019308BD944691
:103900000F4A926F920805D2624618B40B4BDB68DF
:10391000019308BD0A4AF0B5146E556E576F166FC5
:103920006246FFF7F2FF064A146655665767166748
:10393000F0BD18B4014B9B68019308BDC012002074
:10394000000000D0FFB550404240504059404B402D
:10395000594000E0FFB5154F4C00640D03D0BC4248
:1039600004D10C0314D80020090D09055C00640D76
:1039700003D0BC4204D11C030AD800221B0D1B0536
:1039800001264B4009D44B4003D58B4200D18242E3
:10399000FFBD9942FCD19042FFBD0B43DB180343AE
:1039A0001343F5D0C9434918FFBD0000FF070000CD
:1039B00000B5FFF7CFFF804100BDC04600B5FFF75F
:1039C000C1FF01D9002000BD012000BD00B5FFF7F7
:1039D000B9FF804100BD012040054A00121804D8FB
:1039E0005A00121801D800207047012070470000CB
:1039F0000021002805D17047C1174840401AFAD06D
:103A0000C90713B5064B1B6898470CBC441CA24061
:103A10001005120B0349091B09051943114310BD79
:103A2000282200201F04000010B54C00620D8023E6
:103A3000D218DB00D21A5B057E2A10DD9E3A13DA1B
:103A4000CC170903490819435242D140640001349C
:103A50001532202A05DAD0400843604310BD00200B
:103A600010BD0846604310BDC80FC018013810BD16
:103A700018B4024B5B6A019308BD0000C01200201D
:103A800010B50148FEF734F9CC860010132370B549
:103A90001D78012D19D014DD1D48FFF791FB06009C
:103AA0001C48FFF78DFB1C4C80223100200000F0E9
:103AB000AFF8022D06D01948FFF77AFB184B1860B3
:103AC00070BD154C174BA364F5E7174B124C2360E0
:103AD0006360A360E36023616361A361E3612362C8
:103AE0006362A362E36223636363A363E3632364A8
:103AF0006364A364E36423656365A365E365236688
:103B00006366A366E36623676367A367E367D9E732
:103B10005344000053460000C01200204C33000004
:103B2000282200202D3B0010813A001007B5604686
:103B300001880A0A0230DF2AFAD1C9B2820804D306
:103B4000028840880004104300E00068014A505099
:103B5000039007BDC012002051434343C9188C464F
:103B6000110C83B24B4310B4040C614392B280B287
:103B7000504362431C041B0C001910BC5941130430
:103B8000120CC018514161447047000010B5014843
:103B9000FEF7AEF82C860010132310B510481C78E1
:103BA000FFF70EFB0100012C0AD003DD80220D4837
:103BB00000F02EF80C48FFF7FBFA0C4B186010BD14
:103BC000084C5422200000F023F8220008498032DB
:103BD0002368002B00D1216004349442F8D1E9E736
:103BE000534600002C2200204C33000028220020E5
:103BF0008D3B001001480421014B1847D0100020D4
:103C0000D1310010014B1B6818470000D010002074
:103C1000014B5B6818470000D01000207047C04679
:103C2000F8B55746DE464E464546E0B599460A9BEE
:103C300007009A460D9B884693460B9C9B073BD1F9
:103C40000C9B9C423DD21E1B0B9415000C005E4445
:103C50002A004B46013521002020B847B542F7D154
:103C6000A0460B9C002C20D0454636195346321BEB
:103C7000013C185D29004B46B847002CF6D12B00BB
:103C8000350098460D9B9B070FD55B46EC1A0C9BA5
:103C9000A3420AD9464698462A004B4631002020C6
:103CA0000134B84701354445F6D32800F0BCBB4683
:103CB000B246A946A046F8BD16001500002CD3D187
:103CC000E0E71600002CCFD11500EEE7F0B54F4627
:103CD0004646D646C0B584B098460EAB1B7894468F
:103CE0009946129B0D9C109F119E9A0725D4002E79
:103CF00065D1BC4221D201221A409246202C00D12B
:103D0000E9E00C9A551E302202E0202C00D17BE025
:103D100001342A55A742F8D85246002A0DD0B442A1
:103D20000BD20C9A551E3022202C02D171E0202C8F
:103D30002DD001342A55B442F9D1DA063CD55A05C2
:103D40002ED4002C28D10F9A102A00D1B6E0022AD6
:103D500000D1BCE030220C9C227001244A46002A8B
:103D600065D15A0700D499E02B220C9D2A550134C5
:103D700003930C9B62460093029643460194FFF71F
:103D80004FFF04B0E0BCBA46B146A846F0BD2024BF
:103D9000DA06EDD55A0503D4A74266D0B44264D002
:103DA0000F9A102A71D0022A57D0202CE0D022007E
:103DB000013430250C9FBD54202CD9D0CEE70122F0
:103DC00015001D40AA461A4236D04A46002A4AD15A
:103DD0000C321A4247D1BC42A1D2202C91D1202EC4
:103DE00017D82024DA06C3D55A051BD4202F01D0BA
:103DF000202ED5D11F220F9D102D6FD0022DD8D18E
:103E000062250C9FBD54D0E75246002A79D0202E5F
:103E1000BDD92024DA06ABD55A0503D4202FE9D02A
:103E2000202EE7D00F9A102AA2D12024A0E72D221D
:103E30000C9D2A5501349BE7BC4200D37DE7202C22
:103E400000D05EE7DA06F0D55A05EED4202F62D016
:103E5000202EEAD134001F22CDE7202C00D187E7A5
:103E600022000134CCE7013EB5E7621E012CC2D12D
:103E70000F9A102A00D06AE79A063BD558220C9C6C
:103E80002270283A6270022468E79A060ED4202C29
:103E9000CBD078220C9D2A55013486E71A0700D42E
:103EA00066E720220C9D2A55013461E7202CBCD006
:103EB00058250C9A12191570013476E79A0608D520
:103EC00058220C9C227030226270022446E7603235
:103ED000F7E77822F5E7002A83D1B3E7A21E013C79
:103EE0009D0603D478250C9FBD5460E758250C9F90
:103EF000BD545CE778220C9C2270483A6270022420
:103F00002CE7DA0600D433E75A058BD4202F00D0F3
:103F100044E71F226FE73C001F226CE710B5002822
:103F200000D110BD01F068FBFBE7C0460B0010B5E7
:103F3000002802D049681B68984710BDF0B5574665
:103F40004E464546DE46E0B599B0824689469046E3
:103F50000893229A239B10001900FFF73CFD0028CC
:103F600000D0CDE0229823990122D94B5242FFF78D
:103F70002DFD002800D0C3E0229823990122D54BC3
:103F80005242FFF715FD002800D0B9E0229823998E
:103F900000220023FFF70CFD002800D0F1E1229E53
:103FA000239F8023269ADB001A400D92269A1A42FC
:103FB00001D1062324938023269A1B011A403B003B
:103FC00093460996334300D0B3E0002A00D0C2E103
:103FD000002300240A930B94002304250993259BB6
:103FE0000024AB4200D95C1B0223269A1A400C9293
:103FF000269A134203D06B426B415B421C40099BE3
:10400000002B07D00A9A0B9B30003900FFF777FC92
:1040100006000F002298239900220023FFF7C8FC16
:10402000002803D0802109067B181F00269AAA4B7E
:10403000009601971340089E0493249B03940293D7
:10404000424633004946504600F0AAF90400002DCC
:1040500067D02020269A4946024013005A42534115
:104060005B42621C18400A92330022004530D04760
:10407000099A6F1ED317D4185C40D30F9B460025B6
:1040800001E0202D13D008AA94461F23200063448A
:104090000A2101355E19FFF7EDF93031317020004A
:1040A0000A21FFF7E7F926000400092EE9D80523C5
:1040B0000693002304930A3303935B46089E0293FE
:1040C00010AB0A9A00934946330050460597019574
:1040D000FFF7FCFD0C9A0400002A22D04246851A04
:1040E000259AAA421DD9B0465746160022004346DB
:1040F000494620200135B8470134AE42F6D810E0D9
:10410000269B42460493259B49460393249B504695
:104110000293229B239C00930194089B00F040F99A
:104120000400200019B0F0BCBB46B246A946A04628
:10413000F0BD6A4B78009C46400D6044FFF75CFC84
:10414000674A684BFFF7F5FB674A684BFFF7D2FBFE
:10415000674A3B031B0B1A4304000D00099811002A
:10416000644B0022FFF7C1FB634A644BFFF7E1FB9E
:1041700002000B0020002900FFF7BCFBFFF754FCF6
:104180000990FFF739FC5E4A5E4B04000D00FFF713
:10419000D0FB00225C4BFFF7ADFBFFF745FC5B4A11
:1041A0005B4B29000C902000FFF7C3FB04000C9828
:1041B0000D00FFF721FC574A574BFFF7BAFB0200EF
:1041C0000B0020002900FFF790FB04000D00020007
:1041D0000B000A940B95FFF7ACFB04000D000A9846
:1041E0000B9902000B00FFF785FB00220E900F9148
:1041F0004A4B20002900FFF782FB0022484BFFF7C3
:1042000079FB02000B0020002900FFF778FB002259
:10421000444BFFF76FFB02000B0020002900FFF763
:104220006EFB0A9A0B9B0D0080210400C90500203B
:10423000FFF75BFB02000B0020002900FFF75AFB91
:1042400002000B000E980F99FFF759FB0022284B34
:10425000FFF750FB344B0C9C9C4664442305002222
:10426000FFF767FB04000D0002000B00300039006F
:104270000A940B95FFF79CFB00285DD123002A00D0
:10428000C625099963318D42AD4159466D420435C9
:10429000002900D1A3E6134363D030003900234A3C
:1042A000234BFFF78BFB002807D00022300039009A
:1042B000204BFFF77DFB002853D1249B002B00D11E
:1042C0008DE60D9B5A1E9341249AD31A249386E6B9
:1042D000FFFFEF7FFFFFEFFFFFF7FFFF01FCFFFF97
:1042E000FB799F501344D33FB3C8608B288AC63FE5
:1042F0000000F03F0000F83F61436F63A787D23FA3
:1043000071A379094F930A400000E03F1655B5BBF1
:10431000B16B0240EF39FAFE422EE63F00002C401E
:104320000000244000001840FF0300002D431CEB58
:10433000E2361A3F80842E41099B0022013B0993FB
:104340002000164B2900FFF7DAFA0A0001000300EB
:104350000A910B9294E7002300240A930B94002304
:104360000993249A099B9A4214DDD31A013B2493A2
:104370008023269ADB001A43002300252692099306
:104380002DE6802212069446229B1E00239B634446
:104390001F0006E600232493EAE7C04600002440FD
:1043A000F0B54546DE464E465746E0B595B08B46DD
:1043B000904699461E9A1F9B0A9019001000209D56
:1043C000FFF709FB002800D0B0E11E981F990122D9
:1043D000C74B5242FFF7ECFA002800D037E11E9895
:1043E0001F990122C34B5242FFF7F0FA002800D078
:1043F000A7E01E981F990022BF4BFFF7E7FA00289D
:1044000000D088E01E981F990022BC4BFFF7D0FA1D
:10441000002800D07FE01E981F9900220023FFF79C
:10442000C7FA002800D0FAE000230B938023229CD7
:10443000229ADB001C401A4200D102E1092D00D86B
:104440007CE106A98C462C00172200233021093C70
:1044500062440133D154EF1A202B00D132E1A34240
:10446000F7D10022A44B069207931E981F99FFF7DD
:10447000DBFA0500FFF7C0FA02000B001E981F9937
:10448000FFF733FA069A079BFFF753FA0890099152
:10449000FFF7EEFA0600FFF7ABFA02000B000898F0
:1044A0000999FFF722FA0022954B08900991FFF72E
:1044B0008DFA002800D1D2E001363000FFF798FADB
:1044C000069A079BFFF77AFA002801D000260135EB
:1044D000AA46002F00D098E02800FFF78DFA0200CE
:1044E0000B001E981F99FFF700FA854B002206006B
:1044F0000F00FFF75DFA0CAB9A46002845D1002269
:10450000300039007E4BFFF761FA00283DD1EB0700
:104510003BD5013539E0229B42460493219B594605
:1045200003930A981E9B1F9C0295009301944B468F
:10453000FFF704FD15B0F0BCBB46B246A946A04645
:10454000F0BD229B5B0767D403226E4B2299019238
:10455000039121990291009342464B4659460A988D
:10456000FFF75EFBE6E706AA94461723280063449C
:104570000A2101341E19FEF755FF30312800317031
:104580000A21FEF74FFF051E76D0202CEBD1032326
:10459000229A1340012B1DD1219B002B1AD00B9B7B
:1045A000002B00D0BBE0229A0C33134200D0B6E0BF
:1045B000219BA34200D887E006AB9C4617223023FC
:1045C000624404E02199013413558C4259D0202CC7
:1045D000F8D12024229B01940393219B02935346FC
:1045E000B9E706AA944617230A2163443000013430
:1045F0001D19FEF73FFF3031297030000A21013FBD
:10460000FEF738FF092E46D90600202CE9D1554681
:104610000CAB20249A46B8E704223B4B96E71E9A3F
:104620001F9B00200021FFF760F901230B938023DB
:10463000229C229ADB001E901F911C401A4200D03F
:10464000FCE60022314B0627069207930DE7229BDA
:104650000393219B0293042301932D4B7BE70022BC
:1046600008980999264BFFF7A3F9002800D02FE7F7
:10467000002E4FD101362BE70323229A1340012B42
:1046800066D0202CA6D00B9B002B1FD02D2352468A
:10469000135501349EE75546202CB9D030233A19E2
:1046A000002F08D0172006A9013409180B55202C1B
:1046B000AED09442F6D10CAB9A462E2352461355F7
:1046C000013462E72024CCE6202C83D0229B5B07B8
:1046D00008D4229B1B0700D47CE7202352461355A5
:1046E000013477E72B2352461355013472E7C04655
:1046F000FFFFEFFFFFFFEF7F65CDCD4165CDCDC162
:104700000000E03F2C8700102487001080842E4199
:1047100034870010F30700D4DAE60136D8E6219B8F
:10472000013B2193A34200D946E7AAE7229B0393CA
:10473000219B029303230193074B0CE7074BEA00ED
:104740009B185C681B682F000693079400248CE676
:10475000219B002B95D022E730870010F8890010AC
:10476000F0B55746DE464E464546E0B5A5B01F00BB
:104770002E9B91460D93CA4ACA4B82468B461A60BD
:10478000002900D129E2002338789846002800D17A
:104790002BE2C54B44460C93C44B55464E460E93F4
:1047A0000AE0631C9846220033005946A847444655
:1047B0003878002800D187E001372528F1D1082377
:1047C0009A46043B9946023B9846013B00229C4690
:1047D0000B943878791C0300203BDBB2102B03D8F4
:1047E0000C9C9B00E3589F460300303B0B9C0B92B4
:1047F000092B3AD9002398462A2800D1DDE000236E
:104800009A462E284BD00300683BDBB2122B1ED8F1
:104810000E9A9B00D3589F4663460F001A43D8E771
:1048200043460F001A43D4E74B460F001A43D0E724
:1048300010230F001A43CCE753460F001A43C8E772
:1048400080235B000B9A78781A430B9201310F009A
:1048500067284FD82428A4D90300253BDBB2422B7C
:104860009FD893499B00CB589F46002398460B9BAB
:1048700047469C4600E00131BB00DB195B001F1876
:104880000878303F0300303B092BF4D963460B9383
:104890000023B8469A460F0001312E28B3D180205C
:1048A0000B9AC00002430B92302252429446787811
:1048B0000B0084446246092A00D8AAE12A2800D1C4
:1048C000B9E10F0001319EE7A046AA46B146C845AE
:1048D00003D301235B424B4498464B46424659461C
:1048E0000020D047200025B0F0BCBB46B246A94608
:1048F000A046F0BD01006939C9B20F2900D950E7BF
:1049000001238B409C466B4B994663464A461340B5
:104910000F9362464B461A4200D068E10A2956D0EE
:10492000072900D03DE70D9B02CB9846002900D017
:1049300092E10B9B10211A008A43100011310843A9
:10494000814680201A00C0000240110003421CD1A1
:1049500014AB9C461F220F2362440D959C46150004
:104960000F9B0B9402E0202B0CD0110064460C40EE
:1049700020003730092C00D807380133E8540A09E1
:104980000F29F0D80B9C0D9D0F934B4608220693E0
:104990005346059208320392002204930F9B029221
:1049A00001931CAB22000093594633002800FFF707
:1049B0008DF9434604000D93FAE60D9B04CB904617
:1049C000002A79DB78780D930F00013117E70D9BF2
:1049D00002CB14930B789C4618005346002B00D151
:1049E00034E1002815D05346013B013399460D941C
:1049F0000B9C89444A460B00A14601E0934203D038
:104A00005C780133002CF9D14A465B1A0D9C0B925D
:104A10000F938023DB0099460B9A13400D934B466E
:104A20001A4204D00F9B534501D953460F930223DA
:104A300099460B9A13400B934B46134200D1F5E174
:104A40006346002B00D1D6E10D9B002B00D182E103
:104A50000B1BD14631009A463B00A1442E005F4615
:104A60004D4622009B46894609E04B463900541CBE
:104A7000B0475346185D002800D192E122009542CC
:104A8000F3D14B465A46A946BB46350017001E00D7
:104A90004C460B9B002B00D0ADE1149B0D9387E699
:104AA00061470010FC210020588800109C880010ED
:104AB000E8880010419000000B9A283802430B92BE
:104AC00042465242787890460F000D93013196E6A7
:104AD00078786C2800D15DE180230B9A5B001A4343
:104AE0000B920131B3E680239B00ABE6787868280F
:104AF00000D148E180230B9A01311A430B92A6E6BC
:104B0000672800D1B2E0472800D11AE1452800D13A
:104B10001CE10B9A0721049242460D9B0392073336
:104B200052468B43190002920CC92800009201934F
:104B30000D91220033005946FFF700FA040037E6D2
:104B4000462800D18DE00B9A0721049242460D9B26
:104B50000392073352468B43190002920CC9280076
:104B6000009201930D91220033005946FFF718FC83
:104B700004001DE6631C9846220033005946252098
:104B8000A847444614E60D9B04330F93631C9946D3
:104B90000B9B9A0700D40AE10D9B22001878594616
:104BA0003300A84743464444012B00D86FE1B04688
:104BB0002E0025004C46B9465F462200434601348C
:104BC00039002020B047AC42F7D12C00BB4635005D
:104BD0004F4646460F9B0D93EAE5D64B38789A46EA
:104BE00000239846002800D0D3E500246FE66F2804
:104BF00042D000D8FDE11023782800D19BE00B9A29
:104C00009A430B920A239C46002314930A330F9372
:104C100038E057460B9AB900C919490001330F18FB
:104C20001878303F010030390929F4D9BA460B927F
:104C30001F00591CE7E50D9BB87804CB0237D14320
:104C4000C9170A4092460D93791CDCE5002800D173
:104C5000DFE602235B42C8E621200B9A024391461D
:104C600076E620230B9A1A430B926CE780230B9A6B
:104C70001B011A430B924CE708239C460023149314
:104C800008330F930B9880230200DB001A401100B9
:104C90000200184200D080E00C239A4310008023C9
:104CA00002009B001A400B92184200D0F1E08023D2
:104CB00002005B001A4091460D9A04321492184289
:104CC00000D0C3E2430600D5D7E0030600D421E3B9
:104CD0000D9B1B880993002B00D02DE110339843C6
:104CE000002900D128E10023994643460593534605
:104CF00004930F9B06900393002302934B4601936A
:104D00001CAB22000093594633002800FEF7DEFF5B
:104D10000400C2E6582809D0622800D0E3E202234A
:104D20009C460023149302330F93ABE720230B9A86
:104D30001A430B92103B9C460023149310330F939D
:104D4000A0E780230B9A1B011A430B9220230B9A96
:104D50001A430B92DDE60B1B9A460F9B99463B00CC
:104D600037005E469B4622003B003100A847534671
:104D70000134185D0028F6D14B460F935B46B346CD
:104D80003E001F0085E6C0230B9AB8781A430B92A9
:104D9000F91C5CE5C0239B00F6E70D239A43100045
:104DA0007DE75B463500BB464E461F0071E6434635
:104DB000012B66D9631E434432002E001D003B00C8
:104DC000A2465F4691469B4622004B46013439007D
:104DD0002020B047AC42F7D15B463500BB464E467B
:104DE000A14654461F000D9B4A4618785946330089
:104DF0004444A847EEE60F9BA146984500D84CE6F0
:104E00004444E41AB0462E0025004C46B9465F469D
:104E100022004346013439002020B047AC42F7D18C
:104E20002C00BB4635004F46464636E60F98804577
:104E300000D873E24346E218131A32002E001D0018
:104E40003B0091465F469B460F9122004B46013442
:104E500039002020B047AC42F7D15B46BB461F006B
:104E600043460F9901330F930B7835009C464E460D
:104E70006046002800D0E7E50FE60D9B1B780993FC
:104E800029E70D9B2200187859463300A8474C4665
:104E9000A0E60D9AFA3BFF3B07329A43013399464D
:104EA00091444B460D931368526815921A4306D1EC
:104EB0001032904300220992002900D083E0612241
:104EC000810600D54122D2B20A9214AA91460A9ACA
:104ED00000210A3A0B9242461792524618925A46BD
:104EE000B24609911E001F31149B4944BB461694DB
:104EF0001A950024674698468946159D19901B927D
:104F00000AE03032D2B24B4601341A55A8454CD093
:104F1000202C4CD006000D003A0000233000290060
:104F2000FEF7E6FAD2B2092AEBD90B9B9C46624403
:104F3000D2B2E8E71D3C00106123820600D5412370
:104F4000DBB20A3B0B93434614A91F228C461593F0
:104F500053466244B2460D9417974C468046A94684
:104F60001700099D0F9E169308E03033DBB2013421
:104F70003B55B5420ED3202C0CD005003100280043
:104F8000FEF778FACBB20929EFD90B9A944663441D
:104F9000DBB2ECE7159B40469846169B4D465646BD
:104FA000A1469A460D9C179F9FE6B742B0D9179B22
:104FB00056469846189B5F469A461B9B09949B460B
:104FC000169C19981A9D43460593534604930F9BCC
:104FD0000690039300230293099B01931CAB2200CC
:104FE0000093594633002800FEF770FE0400FFF7D7
:104FF000DFFB10230B9A9A430F92692800D091E1AE
:105000000B9980230A00DB001A4010000A001942A5
:1050100003D0112118008A430F920F9A80231100A8
:105020009B0019408C461A425BD1802311005B0023
:10503000194089460D9904310B911A4200D0B2E013
:1050400013005B0600D4EDE00D9B1B781A00D90F0E
:105050000D91002B00D1A3E0100014AA9446424603
:105060001F23159252466344A846BA464D461494EF
:10507000B14604001F00169201E0202D0FD0200041
:105080000A21FEF7F7F901357E1930313170200021
:105090000A21FEF7EFF926000400092EEDD8159B32
:1050A0004E46A94645469846169B57469A46149C36
:1050B0000F9B069343460593534604930A23039399
:1050C0000D9B02934B4601931CAB22000093594663
:1050D00033002800FEF7FAFD0B9B04000D93FFF749
:1050E00067FB07220D9B07339343013294469C4490
:1050F00062460D920CCBD90F0B911100194300D1D0
:105100009BE0D91713911291514010911399594076
:10511000119110981199129A139B801A994110902D
:10512000119114AA9446424600231592524699467C
:10513000169232001F336344A8464E46BA46149472
:105140001F00109C119D914601E0202E10D02000E0
:1051500029000A220023FEF7CBF9013630322B005A
:10516000BA550D0022000400002BEED1092AECD81C
:10517000159B10941195454698464B46169AB14694
:1051800057461E009246149C0F9B06934346059378
:10519000534604930A2303930B9B02934B461CE74D
:1051A000002885D159E70D9B1B68DA0F1100002BF1
:1051B00000D1A6E0DA179818504014AA91461F2390
:1051C00042464B44A8460D94169704006546B146E6
:1051D0001F001491159201E0202D0FD020000A210C
:1051E000FEF748F901357E193031317020000A216F
:1051F000FEF740F926000400092EEDD8159BAC46B9
:1052000045469846149B4E4619000D9C169F0F9BD1
:105210000291069343460593534604930A2303934E
:10522000634650E713001B066ED50D9B00229B5E64
:10523000D9175A184A4092B209E700239946002824
:10524000A2D100220023109211936AE70D9B1B68E4
:105250009946002B03D110339843002938D161239C
:10526000820600D54123DBB20A3B0D9343461693D9
:10527000534614A91F228C4617932B0062444D46B7
:10528000B246159418978046170099460B9C0F9EBE
:1052900008E03033DBB201343B55B5420ED3202C4D
:1052A0000CD0050031002800FEF7E4F8CBB2092944
:1052B000EFD90D9A94466344DBB2ECE7169B404667
:1052C0009846179B56464D469A460B94189F159C38
:1052D00043460593534604930F9B06900393002384
:1052E00002930B9B0BE50B9980230A00DB001A400D
:1052F00010000A00194200D08BE610239A430F9247
:105300008BE6002883D158E70D9B1B68D9175A18E4
:105310004A409CE60D9B1B680993DCE403000133C3
:105320000F93A5E50B926DE400B585B003910121C3
:1053300002900093034813004A4202A9FFF710FAB3
:1053400005B000BD2D3F001010B5094A03001468D8
:1053500084B0002C08D0012200910648524203A9D3
:10536000A047012004B010BD00F092F90020F9E739
:10537000FC2100201D3F001000BEFDE710B5FFF727
:10538000FBFFC04670B5FDF775FF074D074EB542F0
:1053900009D20024013E761BB60808CD98472300A9
:1053A0000134B342F9D170BDBC840010C884001030
:1053B000030010B5080011001B68984710BDC046D7
:1053C000F0B5C64600B5437D07000D001600002B62
:1053D00038D0002A2EDD00216A1E90466A5C037DCB
:1053E0004C1C00200A2A0CD0A64216D043461B5D56
:1053F00021000D3B5A4253416A5CDBB24C1C0A2A25
:10540000F2D1002BF0D1884217DB022110483B6813
:105410009847A64207D02000E8E7864203DD311A0C
:105420003B6828189847AD19013D2B780D3B5A422F
:1054300053413B7580BCB846F0BD091A3B6828183B
:105440009847E2E70368110028009847F2E7C04652
:10545000488A0010F0B5C6460B6806000C0000B57F
:10546000802B06D05A1C2260E418267180BCB846F6
:10547000F0BD0F4B1D68002D16D00B1D98460D4F2B
:1054800002E02D69002D0FD02B68002BF9D03B686E
:10549000002B01D0AB42F4D1280041462268FFF72F
:1054A0008FFF2D69002DEFD101220023DBE7C046DD
:1054B000F01D0020F81D0020F0B5DE4657464E4690
:1054C0004546E0B585B017001C0006000D00FDF74D
:1054D000F5FB0023314A12184B41802109068B420B
:1054E00002D301222E4B52422E4908008A4602F076
:1054F000A7FF01906B1C03D1300002F0C5FE050030
:10550000002C26D0284B9846284B1C68002C15D020
:10551000002F21D1264F02E02469002C0ED02368F1
:10552000002BF9D03B68002B01D09C42F4D1200025
:105530002A003100C0472469002CF0D1019B002BC8
:1055400028D1280005B0F0BCBB46B246A946A0460B
:10555000F0BD184B9846D7E7154B994602ABDF1DB7
:105560000A239B4602E02469002CE7D02368002B25
:10557000F9D04B461B68002B01D0A342F3D12A007F
:1055800031002000C0475B460122390020003B70FB
:10559000C047E8E7504602F01BFFD2E740420F0049
:1055A000FFFFFF7F30110020C1530010F01D0020CD
:1055B000F81D0020B15300100A4A1368002B05D1D2
:1055C0000CE01A001B691032002B07D09842F8D16A
:1055D000002902D103691360016170470029FCD0E2
:1055E0001060FAE7F01D002010B500F0B3F900F0EC
:1055F000FBFB012010BDC046F0B5CE46474680B546
:1056000083B06B460600DD1D2870FDF757FB0023B5
:105610001A4A12184B41802109068B4202D30122FB
:10562000174B524217490800884602F009FF164BF3
:1056300081461C68002C14D0144F02E02469002C11
:105640000FD02368002BF9D03B68002B01D09C427F
:10565000F4D1200001222900FFF7B2FE2469002CBA
:10566000EFD14B46002B05D1300003B0C0BCB9468A
:10567000B046F0BD404602F0ABFEF5E740420F00F9
:10568000FFFFFF7F30110020F01D0020F81D0020DB
:1056900070B5040002F0F8FD0123010005000122AD
:1056A0002000FFF709FF084B1C68002C06D0636838
:1056B000002B05D098472469002CF8D1280070BD34
:1056C0002469002CF3D1F9E7F01D0020F0B5CE4697
:1056D000474680B5A3B004000D00FDF7EFFA0023A4
:1056E000294A12184B41802109068B4202D301221C
:1056F000264B5242264F380002F0A2FE002306003D
:10570000019322002B00234801A9FFF70DFE019B06
:105710008046002B14D1204B1C68002C06D06368F7
:10572000002B0BD098472469002CF8D1002E25D1EE
:10573000404623B0C0BCB946B046F0BD2469ECE792
:10574000154B1D689946002D1CD0144C02E02D69A4
:10575000002D0FD02B68002BF9D02368002B01D02F
:10576000AB42F4D12800019A02A9FFF729FE2D6966
:10577000002DEFD14B4601951C68CEE7380002F0B2
:1057800027FED5E70195D1E740420F00FFFFFF7FDD
:105790003011002055540010F01D0020F81D00208D
:1057A0000FB400B583B004A901C90191FFF78EFFC2
:1057B00003B008BC04B01847F0B5002915DD0E4B46
:1057C0000D271A680D4B0E4CD3185D426B414518DE
:1057D00020215B001E5F0478A64207D0936919421E
:1057E000FCD101301460A842F5D1F0BD9369194293
:1057F000FCD11760F2E7C0463C2300200080FCBFCC
:1058000038230020204B70B504000D1E1E682ADDD1
:10581000002010211D4B013C1A689369194214D1D4
:10582000013093691942FCD1136823548542F4D1A5
:10583000002E08D050239363516B183B0B40144942
:105840008C466244136028000CE0002E08D05023E0
:105850009363516B183B0B400D498C4662441360B7
:1058600000280DD070BD002E0AD05022074B1B68B7
:105870009A63596B183A0A4005498C4663441A608A
:1058800003204042EEE7C046881D00203C23002054
:1058900034100000064B10B51B68002B06D0002109
:1058A000044A12689163044A1068984710BDC046C4
:1058B000881D00203C230020901D00200822034B5F
:1058C00019688B691A42FCD17047C0463C230020FE
:1058D000F8B51A4F1A4B3A680500D318584243419D
:1058E000184E14331C003368002D02D0002B0FD04B
:1058F000F8BD002BFCD0002120009563FCF7BEFA18
:1059000020001149FCF71AFC104B35601D60EFE7D1
:105910000E4B200019600C493560FCF7EBFA0121B1
:105920002000FCF7ABFA50223B689A63596B183A97
:105930000A4007498C4663441A60D9E73C2300209B
:105940000080FCBF881D002095580010901D00208D
:10595000341000000D4B10B51B780D4B0D4C1B780F
:105960000D4B02211B780D4B00202360FCF780F9C2
:1059700002210120FCF77CF9E12120684902FDF7B2
:10598000EBF901210648FFF717FE10BDEC8C001063
:10599000E88C00103C230020E48C00100040034001
:1059A000E01000207047C0460022014B1A7070477B
:1059B0005B2300204B790020FF2B0BD18B79002B30
:1059C00008D1CB79012B05D1082A03D9024B8A785B
:1059D00009301A707047C0465B23002001207047D1
:1059E00010B5012901D0012010BD13495379107958
:1059F00009781B02034300209942F5D15378012B0B
:105A000008D0022BF0D1002064220021FDF77AFBA0
:105A10000120E9E7D37891781B021943DB0507D50C
:105A20004A0A100001231A407E331940FDF7F2FBA9
:105A300001204A0A4042F5E75B23002000487047F6
:105A4000308B001070B5050014000120012909D128
:105A500053780020012B05D1637912791B0213437F
:105A6000072B00D070BD21002800024A9F3301F0AF
:105A700049FAF7E7888A001001230370004870474D
:105A8000688A00104B780A781B0213438A7810B595
:105A900012041A43CB781B0613439622D20093427A
:105AA00000D010BD0022012011004042FDF7B2FBE2
:105AB000024B1860024B19607047C0468C1D0020D5
:105AC000941D002010B5024B1878FCF7F5F910BDB5
:105AD0005C230020154B70B51A68002A22D0EFF322
